{
  "contractName": "Voting",
  "abi": [
    {
      "inputs": [],
      "payable": false,
      "stateMutability": "nonpayable",
      "type": "constructor"
    },
    {
      "constant": true,
      "inputs": [],
      "name": "admin",
      "outputs": [
        {
          "internalType": "address",
          "name": "",
          "type": "address"
        }
      ],
      "payable": false,
      "stateMutability": "view",
      "type": "function"
    },
    {
      "constant": true,
      "inputs": [
        {
          "internalType": "address",
          "name": "",
          "type": "address"
        }
      ],
      "name": "voters",
      "outputs": [
        {
          "internalType": "bool",
          "name": "",
          "type": "bool"
        }
      ],
      "payable": false,
      "stateMutability": "view",
      "type": "function"
    },
    {
      "constant": true,
      "inputs": [
        {
          "internalType": "address",
          "name": "",
          "type": "address"
        },
        {
          "internalType": "uint256",
          "name": "",
          "type": "uint256"
        }
      ],
      "name": "votes",
      "outputs": [
        {
          "internalType": "bool",
          "name": "",
          "type": "bool"
        }
      ],
      "payable": false,
      "stateMutability": "view",
      "type": "function"
    },
    {
      "constant": false,
      "inputs": [
        {
          "internalType": "address[]",
          "name": "_voters",
          "type": "address[]"
        }
      ],
      "name": "addVoters",
      "outputs": [],
      "payable": false,
      "stateMutability": "nonpayable",
      "type": "function"
    },
    {
      "constant": false,
      "inputs": [
        {
          "internalType": "string",
          "name": "name",
          "type": "string"
        },
        {
          "internalType": "string[]",
          "name": "choices",
          "type": "string[]"
        },
        {
          "internalType": "uint256",
          "name": "offset",
          "type": "uint256"
        }
      ],
      "name": "createBallot",
      "outputs": [],
      "payable": false,
      "stateMutability": "nonpayable",
      "type": "function"
    },
    {
      "constant": false,
      "inputs": [
        {
          "internalType": "uint256",
          "name": "ballotId",
          "type": "uint256"
        },
        {
          "internalType": "uint256",
          "name": "choiceId",
          "type": "uint256"
        }
      ],
      "name": "vote",
      "outputs": [],
      "payable": false,
      "stateMutability": "nonpayable",
      "type": "function"
    },
    {
      "constant": true,
      "inputs": [
        {
          "internalType": "uint256",
          "name": "ballotId",
          "type": "uint256"
        }
      ],
      "name": "results",
      "outputs": [
        {
          "components": [
            {
              "internalType": "uint256",
              "name": "id",
              "type": "uint256"
            },
            {
              "internalType": "string",
              "name": "name",
              "type": "string"
            },
            {
              "internalType": "uint256",
              "name": "votes",
              "type": "uint256"
            }
          ],
          "internalType": "struct Voting.Choice[]",
          "name": "",
          "type": "tuple[]"
        }
      ],
      "payable": false,
      "stateMutability": "view",
      "type": "function"
    }
  ],
  "bytecode": "0x608060405234801561001057600080fd5b5033600360006101000a81548173ffffffffffffffffffffffffffffffffffffffff021916908373ffffffffffffffffffffffffffffffffffffffff1602179055506112a6806100616000396000f3fe608060405234801561001057600080fd5b506004361061007d5760003560e01c80639f2524ee1161005b5780639f2524ee146100ea578063a3ec138d1461011a578063b384abef1461014a578063f851a440146101665761007d565b80631b0c27da1461008257806320faae8e146100b25780638203373a146100ce575b600080fd5b61009c60048036036100979190810190610c85565b610184565b6040516100a99190610faa565b60405180910390f35b6100cc60048036036100c79190810190610c06565b610308565b005b6100e860048036036100e39190810190610bc1565b6104cb565b005b61010460048036036100ff9190810190610b85565b6105f5565b6040516101119190610fcc565b60405180910390f35b610134600480360361012f9190810190610b5c565b610624565b6040516101419190610fcc565b60405180910390f35b610164600480360361015f9190810190610cae565b610644565b005b61016e610881565b60405161017b9190610f8f565b60405180910390f35b606060016000838152602001908152602001600020600301544210156101df576040517f08c379a00000000000000000000000000000000000000000000000000000000081526004016101d690611067565b60405180910390fd5b60016000838152602001908152602001600020600201805480602002602001604051908101604052809291908181526020016000905b828210156102fd578382906000526020600020906003020160405180606001604052908160008201548152602001600182018054600181600116156101000203166002900480601f0160208091040260200160405190810160405280929190818152602001828054600181600116156101000203166002900480156102db5780601f106102b0576101008083540402835291602001916102db565b820191906000526020600020905b8154815290600101906020018083116102be57829003601f168201915b5050505050815260200160028201548152505081526020019060010190610215565b505050509050919050565b600360009054906101000a900473ffffffffffffffffffffffffffffffffffffffff1673ffffffffffffffffffffffffffffffffffffffff163373ffffffffffffffffffffffffffffffffffffffff1614610398576040517f08c379a000000000000000000000000000000000000000000000000000000000815260040161038f90610fe7565b60405180910390fd5b600254600160006002548152602001908152602001600020600001819055508260016000600254815260200190815260200160002060010190805190602001906103e39291906108a7565b508042016001600060025481526020019081526020016000206003018190555060008090505b82518110156104c557600160006002548152602001908152602001600020600201604051806060016040528083815260200185848151811061044757fe5b602002602001015181526020016000815250908060018154018082558091505090600182039060005260206000209060030201600090919290919091506000820151816000015560208201518160010190805190602001906104aa929190610927565b50604082015181600201555050508080600101915050610409565b50505050565b600360009054906101000a900473ffffffffffffffffffffffffffffffffffffffff1673ffffffffffffffffffffffffffffffffffffffff163373ffffffffffffffffffffffffffffffffffffffff161461055b576040517f08c379a000000000000000000000000000000000000000000000000000000000815260040161055290610fe7565b60405180910390fd5b60008090505b828290508110156105f057600160008085858581811061057d57fe5b90506020020160206105929190810190610b5c565b73ffffffffffffffffffffffffffffffffffffffff1673ffffffffffffffffffffffffffffffffffffffff16815260200190815260200160002060006101000a81548160ff0219169083151502179055508080600101915050610561565b505050565b60046020528160005260406000206020528060005260406000206000915091509054906101000a900460ff1681565b60006020528060005260406000206000915054906101000a900460ff1681565b600115156000803373ffffffffffffffffffffffffffffffffffffffff1673ffffffffffffffffffffffffffffffffffffffff16815260200190815260200160002060009054906101000a900460ff161515146106d6576040517f08c379a00000000000000000000000000000000000000000000000000000000081526004016106cd90611047565b60405180910390fd5b60001515600460003373ffffffffffffffffffffffffffffffffffffffff1673ffffffffffffffffffffffffffffffffffffffff168152602001908152602001600020600084815260200190815260200160002060009054906101000a900460ff1615151461077a576040517f08c379a000000000000000000000000000000000000000000000000000000000815260040161077190611027565b60405180910390fd5b600160008381526020019081526020016000206003015442106107d2576040517f08c379a00000000000000000000000000000000000000000000000000000000081526004016107c990611007565b60405180910390fd5b6001600460003373ffffffffffffffffffffffffffffffffffffffff1673ffffffffffffffffffffffffffffffffffffffff168152602001908152602001600020600084815260200190815260200160002060006101000a81548160ff02191690831515021790555060016000838152602001908152602001600020600201818154811061085c57fe5b9060005260206000209060030201600201600081548092919060010191905055505050565b600360009054906101000a900473ffffffffffffffffffffffffffffffffffffffff1681565b828054600181600116156101000203166002900490600052602060002090601f016020900481019282601f106108e857805160ff1916838001178555610916565b82800160010185558215610916579182015b828111156109155782518255916020019190600101906108fa565b5b50905061092391906109a7565b5090565b828054600181600116156101000203166002900490600052602060002090601f016020900481019282601f1061096857805160ff1916838001178555610996565b82800160010185558215610996579182015b8281111561099557825182559160200191906001019061097a565b5b5090506109a391906109a7565b5090565b6109c991905b808211156109c55760008160009055506001016109ad565b5090565b90565b6000813590506109db81611235565b92915050565b60008083601f8401126109f357600080fd5b8235905067ffffffffffffffff811115610a0c57600080fd5b602083019150836020820283011115610a2457600080fd5b9250929050565b600082601f830112610a3c57600080fd5b8135610a4f610a4a826110b4565b611087565b9150818183526020840193506020810190508360005b83811015610a955781358601610a7b8882610a9f565b845260208401935060208301925050600181019050610a65565b5050505092915050565b600082601f830112610ab057600080fd5b8135610ac3610abe826110dc565b611087565b91508082526020830160208301858383011115610adf57600080fd5b610aea8382846111e2565b50505092915050565b600082601f830112610b0457600080fd5b8135610b17610b1282611108565b611087565b91508082526020830160208301858383011115610b3357600080fd5b610b3e8382846111e2565b50505092915050565b600081359050610b568161124c565b92915050565b600060208284031215610b6e57600080fd5b6000610b7c848285016109cc565b91505092915050565b60008060408385031215610b9857600080fd5b6000610ba6858286016109cc565b9250506020610bb785828601610b47565b9150509250929050565b60008060208385031215610bd457600080fd5b600083013567ffffffffffffffff811115610bee57600080fd5b610bfa858286016109e1565b92509250509250929050565b600080600060608486031215610c1b57600080fd5b600084013567ffffffffffffffff811115610c3557600080fd5b610c4186828701610af3565b935050602084013567ffffffffffffffff811115610c5e57600080fd5b610c6a86828701610a2b565b9250506040610c7b86828701610b47565b9150509250925092565b600060208284031215610c9757600080fd5b6000610ca584828501610b47565b91505092915050565b60008060408385031215610cc157600080fd5b6000610ccf85828601610b47565b9250506020610ce085828601610b47565b9150509250929050565b6000610cf68383610f30565b905092915050565b610d078161119a565b82525050565b6000610d1882611144565b610d228185611167565b935083602082028501610d3485611134565b8060005b85811015610d705784840389528151610d518582610cea565b9450610d5c8361115a565b925060208a01995050600181019050610d38565b50829750879550505050505092915050565b610d8b816111ac565b82525050565b6000610d9c8261114f565b610da68185611178565b9350610db68185602086016111f1565b610dbf81611224565b840191505092915050565b6000610dd7600a83611189565b91507f6f6e6c792061646d696e000000000000000000000000000000000000000000006000830152602082019050919050565b6000610e17601e83611189565b91507f63616e206f6e6c7920766f746520756e74696c2062616c6c6f7420656e6400006000830152602082019050919050565b6000610e57601883611189565b91507f766f7465722063616e206f6e6c7920766f7465206f6e636500000000000000006000830152602082019050919050565b6000610e97601483611189565b91507f6f6e6c7920766f746572732063616e20766f74650000000000000000000000006000830152602082019050919050565b6000610ed7602e83611189565b91507f63616e6e6f7420736565207468652062616c6c6f7420726573756c742062656660008301527f6f72652062616c6c6f7420656e640000000000000000000000000000000000006020830152604082019050919050565b6000606083016000830151610f486000860182610f80565b5060208301518482036020860152610f608282610d91565b9150506040830151610f756040860182610f80565b508091505092915050565b610f89816111d8565b82525050565b6000602082019050610fa46000830184610cfe565b92915050565b60006020820190508181036000830152610fc48184610d0d565b905092915050565b6000602082019050610fe16000830184610d82565b92915050565b6000602082019050818103600083015261100081610dca565b9050919050565b6000602082019050818103600083015261102081610e0a565b9050919050565b6000602082019050818103600083015261104081610e4a565b9050919050565b6000602082019050818103600083015261106081610e8a565b9050919050565b6000602082019050818103600083015261108081610eca565b9050919050565b6000604051905081810181811067ffffffffffffffff821117156110aa57600080fd5b8060405250919050565b600067ffffffffffffffff8211156110cb57600080fd5b602082029050602081019050919050565b600067ffffffffffffffff8211156110f357600080fd5b601f19601f8301169050602081019050919050565b600067ffffffffffffffff82111561111f57600080fd5b601f19601f8301169050602081019050919050565b6000819050602082019050919050565b600081519050919050565b600081519050919050565b6000602082019050919050565b600082825260208201905092915050565b600082825260208201905092915050565b600082825260208201905092915050565b60006111a5826111b8565b9050919050565b60008115159050919050565b600073ffffffffffffffffffffffffffffffffffffffff82169050919050565b6000819050919050565b82818337600083830152505050565b60005b8381101561120f5780820151818401526020810190506111f4565b8381111561121e576000848401525b50505050565b6000601f19601f8301169050919050565b61123e8161119a565b811461124957600080fd5b50565b611255816111d8565b811461126057600080fd5b5056fea365627a7a723158202d6cd7232557afa515b36d7dc7ff99abaac8b199988699bbc3a29b457b19acad6c6578706572696d656e74616cf564736f6c63430005100040",
  "source": "pragma solidity ^0.5.2;\r\npragma experimental ABIEncoderV2;\r\n\r\ncontract Voting {\r\n    mapping(address => bool) public voters;\r\n    struct Choice {\r\n        uint id;\r\n        string name;\r\n        uint votes;\r\n    }\r\n    struct Ballot {\r\n        uint id;\r\n        string name;\r\n        Choice[] choices;\r\n        uint end;\r\n    }\r\n    mapping(uint => Ballot) ballots;\r\n    uint nextBallotId;\r\n    address public admin;\r\n    mapping(address => mapping(uint => bool)) public votes;\r\n    \r\n    constructor() public {\r\n        admin = msg.sender;\r\n    }\r\n    \r\n    function addVoters(address[] calldata _voters) external onlyAdmin() {\r\n        for(uint i = 0; i < _voters.length; i++) {\r\n            voters[_voters[i]] = true;\r\n        }\r\n    }\r\n    \r\n    function createBallot(\r\n        string memory name,\r\n        string[] memory choices,\r\n        uint offset\r\n        ) public onlyAdmin() {\r\n        ballots[nextBallotId].id = nextBallotId;\r\n        ballots[nextBallotId].name = name;\r\n        ballots[nextBallotId].end = now + offset;\r\n        for(uint i = 0; i < choices.length; i++) {\r\n            ballots[nextBallotId].choices.push(Choice(i, choices[i], 0));\r\n        }\r\n    }\r\n    \r\n    function vote(uint ballotId, uint choiceId) external {\r\n        require(voters[msg.sender] == true, 'only voters can vote');\r\n        require(votes[msg.sender][ballotId] == false, 'voter can only vote once');\r\n        require(now < ballots[ballotId].end, 'can only vote until ballot end');\r\n        votes[msg.sender][ballotId] = true;\r\n        ballots[ballotId].choices[choiceId].votes++;\r\n    }\r\n    \r\n    function results(uint ballotId) view external returns(Choice[] memory) {\r\n        require(now >= ballots[ballotId].end, 'cannot see the ballot result before ballot end');\r\n        return ballots[ballotId].choices;\r\n    }\r\n    \r\n    modifier onlyAdmin() {\r\n        require(msg.sender == admin, 'only admin');\r\n        _;\r\n    }\r\n    \r\n}",
  "sourcePath": "D:/Imp/Julien/Projects/Solidity Dapps/voting/contracts/Voting.sol",
  "compiler": {
    "name": "solc",
    "version": "0.5.16+commit.9c3226ce.Emscripten.clang"
  },
  "schemaVersion": "3.2.4",
  "updatedAt": "2021-02-19T05:50:26.905Z",
  "networkType": "ethereum",
  "devdoc": {
    "methods": {}
  },
  "userdoc": {
    "methods": {}
  }
}